:020000040800F2
:1000000088070020CD010008D5010008D7010008AD
:10001000D9010008DB010008DD0100080000000034
:10002000000000000000000000000000DF010008E8
:10003000E101000800000000E3010008E5010008FC
:10004000E7010008E7010008E7010008E7010008F0
:10005000E7010008E7010008E7010008E7010008E0
:10006000E7010008E7010008E7010008B102000805
:10007000D1020008F1020008110300083103000852
:100080005103000871030008E7010008E7010008B8
:10009000E7010008E7010008E7010008E7010008A0
:1000A000E7010008E7010008E7010008E701000890
:1000B000E92B0008E7010008E7010008E701000854
:1000C000E7010008E7010008E7010008E701000870
:1000D000E701000821300008E7010008E7010008F7
:1000E000E7010008E7010008E7010008E701000850
:1000F000E7010008E7010008E7010008E701000840
:10010000E7010008E7010008E7010008E70100082F
:10011000E7010008E7010008E7010008E70100081F
:1001200091030008B1030008D5030008F503000897
:1001300000F002F800F03AF80AA090E8000C8244BF
:100140008344AAF10107DA4501D100F02FF8AFF29C
:10015000090EBAE80F0013F0010F18BFFB1A43F0A5
:1001600001031847603D0000803D0000103A24BFA5
:1001700078C878C1FAD8520724BF30C830C144BF0C
:1001800004680C607047000000230024002500264E
:10019000103A28BF78C1FBD8520728BF30C148BFEA
:1001A0000B6070471FB51FBD10B510BD00F033F8D0
:1001B0001146FFF7F7FF03F0B5F800F051F803B46C
:1001C000FFF7F2FF03BC03F03CF80000094880474A
:1001D00009480047FEE7FEE7FEE7FEE7FEE7FEE729
:1001E000FEE7FEE7FEE7FEE704480549054A064B41
:1001F00070470000612B00083101000888010020D1
:10020000880700208803002088030020704770477B
:10021000704770477047754600F02CF8AE460500F1
:100220006946534620F00700854618B020B5FFF711
:10023000DBFFBDE820404FF000064FF000074FF015
:1002400000084FF0000B21F00701AC46ACE8C009F4
:10025000ACE8C009ACE8C009ACE8C0098D467047FD
:1002600010B50446AFF300802046BDE81040FFF70C
:10027000A6BF0000004870472801002000B50120FB
:100280000549086000F00CF800200449C1F8A801F5
:1002900000F006F800BD0000A88121420080214244
:1002A000002001E0411CC8B22828FBDB70477047E2
:1002B00010B50548006800F00F040348446020466C
:1002C000FFF7F5FF10BD000000000240704700007E
:1002D00010B505480068C0F30314200102494860C6
:1002E0002046FFF7F3FF10BD0000024070470000FA
:1002F00010B505480068C0F3032420020249486095
:100300002046FFF7F3FF10BD0000024070470000D9
:1003100010B505480068C0F3033420030249486063
:100320002046FFF7F3FF10BD0000024070470000B9
:1003300010B505480068C0F3034420040249486032
:100340002046FFF7F3FF10BD000002407047000099
:1003500010B505480068C0F3035420050249486001
:100360002046FFF7F3FF10BD000002407047000079
:1003700010B505480068C0F30364200602494860D0
:100380002046FFF7F3FF10BD000002407047000059
:1003900010B50548006800F00F040348001D046014
:1003A0002046FFF7F3FF10BD000402407047000035
:1003B00010B506480068C0F3031420010349091D65
:1003C00008602046FFF7F2FF10BD00000004024065
:1003D0007047000010B506480068C0F303242002EF
:1003E0000349091D08602046FFF7F2FF10BD000019
:1003F0000004024010B50C480068C0F3033434B167
:1004000020030949091D0860204600F00FF806483E
:100410000068C0F3034434B120040349091D086097
:10042000204600F004F810BD0004024070477047F9
:1004300008B501214FF4907002F068FA4FF40040C3
:10044000ADF8000010208DF8030003208DF80200A5
:100450006946094800F007F94FF4FE70ADF8000056
:1004600010208DF8030003208DF802006946034830
:1004700000F0F9F808BD0000001401400020014020
:1004800010B50121082002F041FACB2230210820CA
:1004900002F0B6FACB223021092002F0B1FACB22C9
:1004A00030210A2002F0ACFACB2230210B2002F0DE
:1004B000A7FA01222021142002F0A2FA0122202111
:1004C000152002F09DFA01222021162002F098FA50
:1004D00001222021172002F093FA19220021102076
:1004E00002F08EFA19220021112002F089FA192255
:1004F0000021122002F084FA19220021132002F0B8
:100500007FFA00221146192002F07AFA0C22C22149
:100510001B2002F075FA002250211E2002F070FA12
:10052000002250211F2002F06BFA002250212020CF
:1005300002F066FA00225021212002F061FA012225
:1005400016211A2002F05CFA10BD000051B18200A1
:10055000A2F1C042126842F001038200A2F1C0423F
:10056000136009E08200A2F1C0421268034B1A40F6
:100570008300A3F1C0431A6070470000FEFF0F0024
:10058000D0E901121143C268114302691143426963
:10059000114382691143C2691143026A1143426ADD
:1005A0001143826A1143C26A1143026B114302680C
:1005B0009200A2F1C0421160816808290BD1016844
:1005C0008900A1F1C041096841F040020168890039
:1005D000A1F1C0410A60416B0968426B526841EA6F
:1005E0000211426B926841EA0221426B928941EA10
:1005F0000241426B128A41EA0251426B127D41EA8A
:100600000261426B926911430268521C9200A2F18E
:10061000C0421160C16AB1F5804F1BD1816B09687E
:10062000826B526841EA0211826B926841EA0221B0
:10063000826B128A41EA0251826B127D41EA0261A9
:10064000826B9269114302689200A2F1C042C2F823
:10065000041107E06FF0704201688900A1F1C04108
:10066000C1F8042170472DE9F0410246002500261B
:10067000002000230024002791F803C00CF00F0590
:1006800091F803C00CF0100CBCF1000F03D091F8EE
:1006900002C04CEA050591F800C0BCF1000F31D052
:1006A000146800202BE04FF0010C0CFA00F3B1F8B5
:1006B00000C00CEA03069E4220D183004FF00F0CCD
:1006C0000CFA03F7BC4305FA03FC4CEA040491F866
:1006D00003C0BCF1280F06D14FF0010C0CFA00FC4E
:1006E000C2F814C00AE091F803C0BCF1480F05D16C
:1006F0004FF0010C0CFA00FCC2F810C0401C082896
:10070000D1D31460B1F800C0BCF1FF0F34DD5468E0
:1007100000202EE000F1080C4FF0010808FA0CF35D
:10072000B1F800C00CEA03069E4221D183004FF0CD
:100730000F0C0CFA03F7BC4305FA03FC4CEA040463
:1007400091F803C0BCF1280F05D100F1080C08FA9C
:100750000CF8C2F8148091F803C0BCF1480F07D11F
:1007600000F1080C4FF0010808FA0CF8C2F81080EC
:10077000401C0828CED35460BDE8F081F0B50A468D
:10078000002300240021002500F00046B6F1004FB0
:1007900002D11D4EF16901E01B4E7168C0F30345A3
:1007A00083B200F44016B6F5401F08D121F0706105
:1007B000154E766826F07066134F7E6012E000F4E6
:1007C0008016B6F5801F06D1032606FA05F4A1436C
:1007D00041F0706106E0460D360103FA06F6B143BA
:1007E00041F0706122B1460D360103FA06F631433D
:1007F00000F00046B6F1004F02D1034EF16101E076
:10080000014E7160F0BD00000000014001617047C1
:1008100008B50121082002F079F84FF44060ADF8E6
:10082000000010208DF8030003208DF802006946B7
:100830000448FFF718FF4FF440610248FFF7E6FF56
:1008400008BD0000000C014000B5024612480068D7
:1008500020F47040104908600846006840F4405099
:10086000086000200D490860002311E002F08000BC
:1008700020B101200949091D086003E00020074953
:10088000091D0860FFF7FAFC5006020E581CC3B29F
:10089000082BEBDB00BD0000040C0140A8812142C5
:1008A00000B50F48006820F470400D490860084604
:1008B000006840F44050086001200A4908600A4975
:1008C000C1F8A801FFF7ECFC002006490860FFF71B
:1008D000E7FCFFF7E5FC00200349C1F8A80100BDD3
:1008E000040C0140AC8121420080214200B50D483A
:1008F000006820F470400B4908600846006840F426
:100900004050086001200849086000200749C1F8EC
:10091000AC01FFF7C5FC01200349091D0860FFF782
:10092000BFFC00BD040C0140A8812142008021428F
:1009300000B500221448006820F470401249086095
:100940000846006840F40040086001200F49086034
:10095000FFF7A6FC01200E49C1F8A801FFF7A0FC93
:1009600007E0501CC2B2FA2A03DDFFF7BFFF0120E7
:1009700000BD0648803800680028F2D10349091FED
:10098000086000BFF4E70000040C0140AC81214284
:100990000080214270B50446002609480588408839
:1009A00045430021084601F0D3FD01F0FBFE00BFE6
:1009B00003E04FF0D8404480761CAE42F9D370BDBE
:1009C0001C01002010B50446002C3DD13949887126
:1009D000F02008804FF4A07048800846808849F2D3
:1009E0004131884205D03348808846F60401884268
:1009F00014D12C202F49C8712A2008722B2048724C
:100A00000846808846F6040188424ED14FF4A07013
:100A1000284908804FF4F070488046E025488088D7
:100A200048F68911884207D122202249C8714E20F8
:100A300008724F20487238E022201E49C8712020D9
:100A400008722120487230E01A48808846F6040176
:100A500088422AD00120174988714FF4A07008807D
:100A6000F02048800846808849F24131884207D109
:100A70002C201049C8712A2008722B20487214E0DB
:100A80000C48808848F68911884207D122200949FC
:100A9000C8714F2008724E20487206E02220054996
:100AA000C8712120087220204872002001F06AFCE1
:100AB00010BD00001C01002030B504460D4629463B
:100AC000204601F045FD01F06DFE034800884FF01F
:100AD000D841488030BD00002800002000B59FB0FC
:100AE0000121080201F0F2FE012140F2E51001F0BF
:100AF0000DFF0220ADF8780010208DF87B00032058
:100B00008DF87A001EA9FE48FFF7ADFD0221FC48D2
:100B1000FFF77CFE4CF23370ADF8780018208DF8AA
:100B20007B0003208DF87A001EA9F648FFF79BFD95
:100B30004FF68070ADF8780018208DF87B00032008
:100B40008DF87A001EA9F048FFF78DFD4FF4805014
:100B5000ADF8780018208DF87B0003208DF87A001E
:100B60001EA9EA48FFF77FFD0120ADF878001820A4
:100B70008DF87B0003208DF87A001EA9E448FFF76A
:100B800072FD01200890002009900F200A9000209B
:100B90000B900C900D900E9001900290032003900A
:100BA0000020049005900690079006200F900020EA
:100BB0001090119010201290002013901590149016
:100BC000169017904FF480501890002019904FF411
:100BD00080401A9000201B9008A81C9001A81D902E
:100BE0000FA8FFF7CDFC01210620FFF7AFFC322054
:100BF00002F04CFB0121002001F0DCFD322002F06C
:100C000045FB002001F0B2FBC2498880084680887D
:100C1000FF280ADB084680884FF6FF71884204D01F
:100C2000BC488088B0F5134F4BD1D32001F0B5FDFF
:100C300001F098FB01F096FB01F094FBB549888028
:100C4000084680884FF6FF7101EA0020B14988808C
:100C500001F088FBAF4989880843AE49888008467F
:100C6000808849F2413188421BD0BF2001F095FDB8
:100C700001F078FB01F076FB01F074FB01F072FBF0
:100C8000A4498880084680884FF6FF7101EA002059
:100C9000A049888001F066FB9E49898808439D49E8
:100CA00088809C48808849F24131884209D099481F
:100CB000808846F60401884203D049F241309549C4
:100CC00088809448808849F2413188427ED1CF2083
:100CD00001F063FD002001F05CFDC12001F059FD31
:100CE000302001F056FDED2001F057FD642001F0A9
:100CF00050FD032001F04DFD122001F04AFD81203E
:100D000001F047FDE82001F048FD852001F041FD9C
:100D1000102001F03EFD7A2001F03BFDCB2001F0D8
:100D20003CFD392001F035FD2C2001F032FD002082
:100D300001F02FFD342001F02CFD022001F029FDEF
:100D4000F72001F02AFD202001F023FDEA2001F028
:100D500024FD002001F01DFD002001F01AFDC0203F
:100D600001F01BFD1B2001F014FDC12001F015FD59
:100D7000012001F00EFDC52001F00FFD302001F033
:100D800008FD302001F005FDC72001F006FDB72069
:100D900001F0FFFC362001F000FD482001F0F9FCD5
:100DA0003A2001F0FAFC552001F0F3FCB12001F0EB
:100DB000F4FC002001F0EDFC1A2001F0EAFCB62062
:100DC00001F0EBFC0A2001F0E4FC00E0A4E0A2202A
:100DD00001F0DFFCF22001F0E0FC002001F0D9FC82
:100DE000262001F0DAFC012001F0D3FCE02001F024
:100DF000D4FC0F2001F0CDFC2A2001F0CAFC2820F1
:100E000001F0C7FC082001F0C4FC0E2001F0C1FC79
:100E1000082001F0BEFC542001F0BBFCA92001F029
:100E2000B8FC432001F0B5FC0A2001F0B2FC0F2011
:100E300001F0AFFC002001F0ACFC002001F0A9FCA7
:100E4000002001F0A6FC002001F0A3FCE12001F04D
:100E5000A4FC002001F09DFC152001F09AFC172055
:100E600001F097FC072001F094FC112001F091FCA7
:100E7000062001F08EFC2B2001F08BFC562001F0A7
:100E800088FC3C2001F085FC052001F082FC10204C
:100E900001F07FFC0F2001F07CFC3F2001F079FC89
:100EA0003F2001F076FC0F2001F073FC2B2001F0B5
:100EB00074FC002001F06DFC002001F06AFC0120B0
:100EC00001F067FC3F2001F064FC2A2001F065FC82
:100ED000002001F05EFC002001F05BFC002001F02E
:100EE00058FCEF2001F055FC112001F056FC782051
:100EF00002F0CCF9292001F050FC01F023BA0000E7
:100F00000008014000140140001801400020014089
:100F1000001C01401C010020FE48808846F60401A8
:100F200088427CD1112001F038FC142002F0AEF987
:100F3000D02001F032FC072001F02BFC422001F010
:100F400028FC1D2001F025FCD12001F026FC00200A
:100F500001F01FFC1A2001F01CFC092001F019FC13
:100F6000D22001F01AFC012001F013FC222001F034
:100F700010FCC02001F011FC102001F00AFC3B2005
:100F800001F007FC002001F004FC022001F001FC4C
:100F9000112001F0FEFBC52001F0FFFB032001F052
:100FA000F8FBC82001F0F9FB002001F0F2FB25203E
:100FB00001F0EFFB212001F0ECFB052001F0E9FB43
:100FC000002001F0E6FB0A2001F0E3FB652001F0C0
:100FD000E0FB252001F0DDFB772001F0DAFB50205B
:100FE00001F0D7FB0F2001F0D4FB002001F0D1FB72
:100FF000F82001F0D2FB012001F0CBFBFE2001F034
:10100000CCFB002001F0C5FB022001F0C2FB202038
:1010100001F0C3FB362001F0C0FB082000E02CE00B
:1010200001F0B7FB3A2001F0B8FB552001F0B1FB0D
:101030002B2001F0B2FB002001F0ABFB002001F0FF
:10104000A8FB012001F0A5FB3F2001F0A2FB2A2014
:1010500001F0A3FB002001F09CFB002001F099FBB4
:10106000012001F096FBDF2001F093FB782002F0D5
:101070000DF9292001F091FB3FE7A648808849F24D
:10108000253188427ED147F6F001E52001F092FB40
:101090004FF48071012001F08DFB4FF4E0610220DC
:1010A00001F088FB41F23001032001F083FB0021B5
:1010B000042001F07FFB40F20221082001F07AFBBE
:1010C0000021092001F076FB00210A2001F072FBCB
:1010D00000210C2001F06EFB00210D2001F06AFBC5
:1010E00000210F2001F066FB0021102001F062FBBF
:1010F0000721112001F05EFB0021122001F05AFBB4
:101100000021132001F056FB0021072001F052FBC3
:1011100041F29061102001F04DFB40F22721112097
:1011200001F048FB9D21122001F044FB4FF4C8510F
:10113000132001F03FFB2521292001F03BFB0D216D
:101140002B2001F037FB0721302001F033FB40F268
:101150000331312001F02EFB0321322001F02AFB64
:1011600040F20621352001F025FB0821362001F050
:1011700021FB40F20641372001F01CFB4FF4417186
:10118000382000E057E001F015FB0721392001F07D
:1011900011FB40F202613C2001F00CFB08213D20D4
:1011A00001F008FB0021502001F004FBEF21512049
:1011B00001F000FB0021522001F0FCFA40F23F1147
:1011C000532001F0F7FA4FF42741602001F0F2FAC2
:1011D0000121612001F0EEFA00216A2001F0EAFA13
:1011E0000021802001F0E6FA0021812001F0E2FADE
:1011F0000021822001F0DEFA0021832001F0DAFADA
:101200000021842001F0D6FA0021852001F0D2FAD5
:101210001021902001F0CEFA4FF4C061922001F02D
:10122000C9FA40F23311072001F0C4FA222100204C
:1012300001F0C0FA61E63748808849F228318842D7
:101240006AD141F28F01EC2001F0B4FA41F234216D
:10125000EF2001F0AFFA4FF48071012001F0AAFAFB
:101260004FF4E061022001F0A5FA41F230010320C1
:1012700001F0A0FA0021042001F09CFA40F20221C2
:10128000082001F097FA0021092001F093FA0021CB
:101290000A2001F08FFA01210C2001F08BFA0021C5
:1012A0000D2001F087FA00210F2001F083FA0021C0
:1012B000102001F07FFA0721112001F07BFA0021B4
:1012C000122001F077FA0021132001F073FA0121B6
:1012D000072001F06FFA322001F0D8FF41F290416F
:1012E000102001F067FA40F22721112001F062FA84
:1012F000322001F0CBFF8A21122001F05BFA32206C
:1013000001F0C4FF4FF4D051132001F053FA06212D
:10131000292002E01C0100208AE001F04BFA0D2197
:101320002B2001F047FA322001F0B0FF00212020ED
:1013300001F040FA0021212001F03CFA322001F0B6
:10134000A5FF0021302001F035FA40F20461312080
:1013500001F030FA40F20531322001F02BFA002181
:10136000352001F027FA40F60941362001F022FA33
:101370004FF40171372001F01DFA40F2013138209D
:1013800001F018FA40F20771392001F013FA002138
:101390003C2001F00FFA40F60A213D2001F00AFA44
:1013A000322001F073FF0021502001F003FAEF21F9
:1013B000512001F0FFF90021522001F0FBF940F229
:1013C0003F11532001F0F6F94FF42741602001F05E
:1013D000F1F90121612001F0EDF900216A2001F00D
:1013E000E9F90021802001F0E5F90021812001F0D8
:1013F000E1F90021822001F0DDF90021832001F0D4
:10140000D9F90021842001F0D5F90021852001F0CF
:10141000D1F91021902001F0CDF94FF4C061922054
:1014200001F0C8F940F23311072001F0C3F964E577
:10143000FE48808849F2203188427DD1002108464B
:1014400001F0B8F94FF48071012001F0B3F94FF4C5
:10145000E061022001F0AEF941F23001032001F019
:10146000A9F90021042001F0A5F940F20221082089
:1014700001F0A0F90021092001F09CF900210A20C7
:1014800001F098F901210C2001F094F900210D20C0
:1014900001F090F900210F2001F08CF9322001F0C9
:1014A000F5FE40F20111072001F084F9322001F02D
:1014B000EDFE4FF48651102001F07CF90721112038
:1014C00001F078F94FF48871122001F073F94FF4AC
:1014D0003061132001F06EF90021292001F06AF932
:1014E00044F210012B2001F065F90021502001F099
:1014F00061F9EF21512001F05DF90021522001F046
:1015000059F940F23F11532001F054F94FF41C51A6
:10151000602001F04FF90121612001F04BF9002119
:101520006A2001F047F90021802001F043F90021F1
:10153000812001F03FF900E02EE00021822001F03F
:1015400039F90021832001F035F90021842001F0D0
:1015500031F90021852001F02DF91021902001F0B2
:1015600029F90021922001F025F90121932001F0B1
:1015700021F94FF48871952001F01CF90021972082
:1015800001F018F90021982001F014F940F27311CC
:10159000072001F00FF9B0E4A448808849F2313106
:1015A00088427DD141F21401E72001F003F94FF4A4
:1015B0008071012001F0FEF84FF40071022001F06B
:1015C000F9F841F23801032001F0F4F840F2022169
:1015D000082001F0EFF80021092001F0EBF80021CC
:1015E0000A2001F0E7F800210C2001F0E3F80021C7
:1015F0000D2001F0DFF800210F2001F0DBF80021C1
:10160000102001F0D7F80721112001F0D3F80021B4
:10161000122001F0CFF80021132001F0CBF8C820F0
:1016200001F034FE41F29061102001F0C3F840F265
:101630002721112001F0BEF8322001F027FE0C21F5
:10164000122001F0B7F8322001F020FE4FF40061C3
:10165000132001F0AFF81121292001F0ABF80B2184
:101660002B2001F0A7F8322001F010FE00212020ED
:1016700001F0A0F840F23F11212001F09BF8002179
:10168000302001F097F84FF48371312001F092F887
:101690000021322001F08EF84FF40171352000E076
:1016A00064E001F087F841F20A61362001F082F827
:1016B00040F20771372001F07DF84FF48371382034
:1016C00001F078F840F20771392001F073F840F228
:1016D00002413C2001F06EF840F60F413D2001F040
:1016E00069F80021502001F065F8EF21512001F048
:1016F00061F80021522001F05DF840F23F115320C3
:1017000001F058F84FF41C51602001F053F801210A
:10171000612001F04FF800216A2001F04BF8002110
:10172000802001F047F80021812001F043F80021DA
:10173000822001F03FF80021832001F03BF80021D6
:10174000842001F037F80021852001F033F81021C2
:10175000902001F02FF84FF4C061922001F02AF898
:1017600040F23311072001F025F885E42F488088E6
:1017700045F2084188427DD14FF48071012001F08B
:1017800019F84FF4E061022001F014F841F2300141
:10179000032001F00FF80021042001F00BF840F2C3
:1017A0000721082001F006F80021092001F002F8C5
:1017B00000210A2000F0FEFF00210C2000F0FAFFBB
:1017C00000210D2000F0F6FF00210F2000F0F2FFB5
:1017D000142001F05BFD41F2B061102000F0EAFF3F
:1017E0000121112000F0E6FF0121172000F0E2FFA7
:1017F0004FF49C71122000F0DDFF4FF400611320C4
:1018000000F0D8FF0921292000F0D4FF09212A2067
:1018100000F0D0FF0021A42000F0CCFF00215020D8
:1018200000F0C8FFEF21512002E000001C01002061
:1018300000F0C0FF0021522000F0BCFF40F23F1139
:10184000532000F0B7FF4FF41C51602000F0B2FFAE
:101850000121612000F0AEFF00216A2000F0AAFF04
:101860000021802000F0A6FF0021812000F0A2FFCF
:10187000002100E028E0822000F09CFF002183206E
:1018800000F098FF0021842000F094FF00218520C3
:1018900000F090FF1321902000F08CFF0021922097
:1018A00000F088FF0321932000F084FF4FF488713B
:1018B000952000F07FFF40F27311072000F07AFFBF
:1018C000322001F0E3FCB5E4FE48808841F2055186
:1018D00088427DD10021072000F06CFF322001F00A
:1018E000D5FC4FF48E71122000F064FF0121A4207A
:1018F00000F060FF0F21082000F05CFF08210A20A3
:1019000000F058FF08210D2000F054FF40F207714D
:10191000302000F04FFF0721312000F04BFF40F254
:101920000361322000F046FF4FF4E061332000F005
:1019300041FF40F20221342000F03CFF022135201B
:1019400000F038FF41F60F71362000F033FF40F20F
:101950000771372000F02EFF0021382000F02AFF09
:101960000021392000F026FF40F207713A2000F0F4
:1019700021FF00213B2000F01DFF07213C2000F04B
:1019800019FF00213D2000F015FF322001F07EFC00
:101990000121072000F00EFF0121172000F00AFFAF
:1019A000322001F073FC4FF4BD51102000F002FF13
:1019B00040F21721112000F0FDFE4FF48F7112202C
:1019C00000F0F8FE4FF47061132000F0F3FE00E029
:1019D00095E000212A2000F0EDFE0A21292000F0E8
:1019E000E9FE4FF49F71122000F0E4FE0021502028
:1019F00000F0E0FEEF21512000F0DCFE002152203B
:101A000000F0D8FE40F23F11532000F0D3FE4FF417
:101A10001C51602000F0CEFE0121612000F0CAFEC2
:101A200000216A2000F0C6FE0021802000F0C2FEE6
:101A30000021812000F0BEFE0021822000F0BAFECD
:101A40000021832000F0B6FE0021842000F0B2FEC9
:101A50000021852000F0AEFE1321902000F0AAFEA8
:101A60004FF44071922000F0A5FE0521932000F074
:101A7000A1FE0021952000F09DFE0021972000F09E
:101A800099FE0021982000F095FE4FF4807101200E
:101A900000F090FE4FF4E061022000F08BFE41F276
:101AA0003801032000F086FE0021042000F082FEB1
:101AB00000210C2000F07EFE00210F2000F07AFEB5
:101AC0000021202000F076FE0021212000F072FE8F
:101AD0002121072000F06EFE142001F0D7FB6121C8
:101AE000072000F067FE142001F0D0FB40F27311D4
:101AF000072000F05FFE142001F0C8FB97E4714856
:101B000080884BF2055188427ED10021084600F0C2
:101B100051FE0021084600F04DFE0021084600F06D
:101B200049FE0021084600F045FE0121A42000F0F6
:101B300041FE142001F0AAFB4FF41C51602000F07C
:101B400039FE40F20221082000F034FE4FF4057106
:101B5000302000F02FFE43F21571312000F02AFEF4
:101B600040F20461322000F025FE40F61661332079
:101B700000F020FE42F21121342000F01BFE4FF451
:101B8000A851352000F016FE48F20751362000F02B
:101B900011FE41F20741372000F00CFE41F20341F3
:101BA000382000F007FE2021392000F003FE1A2122
:101BB000902000F0FFFD0021102000F0FBFD072128
:101BC000112000F0F7FD0021122000F0F3FD0021AC
:101BD000132000F0EFFD142001F058FB4FF4E661F4
:101BE000102000F0E7FD40F23711112000F0E2FD77
:101BF000142001F04BFB4FF4DC71122000F0DAFDF1
:101C0000142001F043FB00E087E04FF470611320E3
:101C100000F0D0FD80212A2000F0CCFD48212920B1
:101C200000F0C8FD142001F031FB4FF48071012059
:101C300000F0C0FD4FF4E061022000F0BBFD41F276
:101C40003801032000F0B6FD40F20221082000F028
:101C5000B1FD00210A2000F0ADFD00210C2000F0B4
:101C6000A9FD00210D2000F0A5FD30210E2000F07F
:101C7000A1FD0021502000F09DFDEF21512000F03A
:101C800099FD0021522000F095FD40F23F115320B4
:101C900000F090FD4FF41C51602000F08BFD0121FD
:101CA000612000F087FD00216A2000F083FD1121F2
:101CB000902000F07FFD4FF4C061922000F07AFD8B
:101CC00002E000001C01002040F20241932000F0DD
:101CD00071FD0221942000F06DFD142001F0D6FA70
:101CE0000121072000F066FD142001F0CFFA6121E8
:101CF000072000F05FFD40F27311072000F05AFD4D
:101D00000021202000F056FD0021212000F052FD8E
:101D10002221002000F04EFD14E3FE4880884CF2A2
:101D2000055188427ED10021084600F043FD002184
:101D3000084600F03FFD142001F0A8FA00210846F3
:101D400000F038FD0021084600F034FD002108466F
:101D500000F030FD0021084600F02CFD0121A420F8
:101D600000F028FD142001F091FA4FF41C5160207E
:101D700000F020FD40F60601082000F01BFD40F2B7
:101D80000371302000F016FD0121312000F012FD1A
:101D90000421322000F00EFD4FF48171332000F059
:101DA00009FD4FF44071342000F004FD40F20311AE
:101DB000352000F0FFFC1F21362000F0FBFC40F234
:101DC0000371372000F0F6FC0121382000F0F2FC0E
:101DD0000421392000F0EEFC1521902000F0EAFCEF
:101DE0004FF48261102000F0E5FC40F24721112001
:101DF00000F0E0FC4FF4DE71122000F0DBFC4FF449
:101E00006061132000F0D6FC782001F03FFA4FF417
:101E10008071012000F0CEFC4FF40071022000F030
:101E2000C9FC00E050E041F23001032000F0C2FCA8
:101E300008210A2000F0BEFC00210C2000F0BAFCB2
:101E400020210E2000F0B6FC00210F2000F0B2FC93
:101E50000021202000F0AEFC0021212000F0AAFC8F
:101E60003D212A2000F0A6FC142001F00FFA2D21BC
:101E7000292000F09FFC0021502000F09BFC4DF237
:101E8000EF01512000F096FC0021522000F092FC5E
:101E900040F23F11532000F08DFC0021612000F042
:101EA00089FC00216A2000F085FC4FF440719220EB
:101EB00000F080FC0521932000F07CFC4FF4807141
:101EC000072000F077FC3DE29248808848F68911AF
:101ED00088427DD10121002000F06CFC4AF6A4016B
:101EE000032000F067FC00210C2000F063FC40F6AA
:101EF0000C010D2000F05EFC4FF42C510E2000F080
:101F000059FCB0211E2000F055FC42F63F31012063
:101F100000F050FC4FF4C061022000F04BFC0021A7
:101F2000102000F047FC46F27801112000F042FC3E
:101F30000021052000F03EFC0021062000F03AFCC4
:101F40004EF61C71162000F035FC0321172000F01E
:101F500031FC40F23321072000F02CFC00210B2043
:101F600000F028FC00210F2000F024FC002141207B
:101F700000F020FC0021422000F01CFC0021482041
:101F800000F018FC40F23F11492000F013FC002142
:101F90004A2000F00FFC00214B2000F00BFC4FF416
:101FA0006F41442000F006FC0021452000F002FCB7
:101FB00040F23F11462000F0FDFB40F20771302057
:101FC00000F0F8FB4FF40171312000F0F3FB00E06A
:101FD0003DE04FF40171322000F0ECFB40F2025181
:101FE000332000F0E7FB40F20751342000F0E2FB21
:101FF0004FF40171352000F0DDFB4FF40171362004
:1020000000F0D8FB40F20251372000F0D3FB40F241
:1020100002313A2000F0CEFB40F202313B2000F0CA
:10202000C9FB0021232000F0C5FB0021242000F083
:10203000C1FB4FF40041252000F0BCFB00214F20E4
:1020400000F0B8FB00214E2000F0B4FB7AE13148EB
:10205000808844F2315188427DD10121002000F076
:10206000A9FB0A2001F012F941F22861102000F0CA
:10207000A1FB0E21122000F09DFB40F63921132018
:1020800000F098FB0A2001F001F94021112000F036
:1020900091FB5021152000F08DFB0A2001F0F6F88D
:1020A0001E21122000F086FB0A2001F0EFF84FF409
:1020B000B151102000F07EFB42F63921132000F0D0
:1020C00079FB0A2001F0E2F84FF48071012000F062
:1020D00071FB4FF44071022000F06CFB41F23801BB
:1020E000032000F067FB40F20221082000F062FBB1
:1020F00008210A2000F05EFB0021302000F05AFB8E
:1021000040F20241312000F055FB4FF48371322040
:1021100002E000001C01002000F04CFB40F20351E3
:10212000332000F047FB4FF48271342000F042FB73
:1021300040F20131352000F03DFB40F207713620BE
:1021400000F038FB40F20531372000F033FB4FF44C
:102150000271382000E040E000F02CFB40F60B71EB
:10216000392000F027FB0221412000F023FB4FF42F
:102170001C51602000F01EFB0121612000F01AFBC1
:102180004FF40471902000F015FB4FF485719220FC
:1021900000F010FB0421932000F00CFB4FF4807141
:1021A000A02000F007FB0121072000F003FB212104
:1021B000072000F0FFFA2321072000F0FBFA33216B
:1021C000072000F0F7FA40F23311072000F0F2FA8E
:1021D0000021A02000F0EEFAB4E06048808844F2CC
:1021E00035518842F8D13021152000F0E3FA102152
:1021F0009A2000F0DFFA2021112000F0DBFA43F2F0
:102200002841102000F0D6FA0221122000F0D2FA64
:1022100041F23801132000F0CDFA282001F036F801
:102220001221084600F0C6FA282001F02FF843F2E8
:102230002041102000F0BEFA43F23801132000F0D4
:10224000B9FA462001F022F80021302000F0B2FA5D
:1022500040F20241312000F0ADFA40F20731322065
:1022600000F0A8FA4FF44171332000F0A3FA0421E2
:10227000342000F09FFA40F20141352000F09AFA34
:1022800040F20771362000F095FA40F20531372010
:1022900000F090FA4FF4C261382000F08BFA4FF44E
:1022A000C261392000F086FA4FF48071012000F0FD
:1022B00081FA4FF44071022000F07CFA41F23001C3
:1022C000032000F077FA40F60801082000F072FAC7
:1022D00008210A2000F06EFA4FF41C51602000F033
:1022E00069FA0121612000F065FA4FF49F71902096
:1022F00000F060FA4FF48071922000F05BFA4FF426
:102300008071932000F056FA4FF44051A02000F065
:1023100051FA1021A32000F04DFA0121072000F00E
:1023200049FA2121072000F045FA2321072000F077
:1023300041FA3321072000F03DFA40F23311072023
:1023400000F038FA0020FEF73DFB01200449086048
:102350004FF6FF70FEF71EFB1FB000BD1C010020F2
:10236000840121424FF0D8404088704710B50446A0
:10237000204600F012FA052000F0AEFFFFF7F2FF52
:1023800010BD000070B50446002300266F48807918
:1023900001281ED16D48808846F60401884218D075
:1023A000082C15D2DFE804F00406080A0C0E1012FF
:1023B00006240DE007240BE0042409E0052407E0CF
:1023C000012405E0002403E0032401E0022400BF0F
:1023D00000BF5E48808849F24131884205D05B48A1
:1023E000808846F6040188427CD1082C1CD2DFE8A4
:1023F00004F00406090C0F12151800BF14E043F096
:10240000800311E043F040030EE043F0C0030BE013
:1024100043F0200308E043F0600305E043F0A0032D
:1024200002E043F0E00300BF00BF362643F008039C
:102430004648808846F60401884201D143F00203F1
:102440001946304600F0B6F903F0200068B13F4865
:1024500000883E494988884214DA3C48058840880B
:102460003A490880084645800CE0384800883749DA
:102470004988884206DD3548058840883349088008
:10248000084645803149087A00F087F9002000F0BD
:1024900080F9002000F07DF92C490988491EC1F31C
:1024A0000F2000F076F929490978491EC8B200F0DA
:1024B00070F92649487A00F070F9002000F069F9B7
:1024C000002000F066F921494988491EC1F30F2018
:1024D00000F05FF91D498978491EC8B200F059F92A
:1024E00032E0FFE7082C1CD2DFE804F004070A0DF5
:1024F0000F12151843F0300313E043F0100310E0FF
:1025000043F020030DE000BF0BE043F0380308E088
:1025100043F0280305E043F0180302E043F008030A
:1025200000BF00BF0948808848F68911884204D15D
:10253000112646F24000034302E0032643F4805391
:102540001946304600F036F970BD00001C0100202D
:1025500010B503460C461A48808849F2413188423A
:1025600005D01748808846F60401884214D11449E2
:10257000087A00F012F9181200F00BF9D8B200F046
:1025800008F90F49487A00F008F9201200F001F923
:10259000E0B200F0FEF812E009488079012804D189
:1025A00007480088401EC01A83B20549087A1946B8
:1025B00000F000F90249487A214600F0FBF810BD0E
:1025C0001C0100202DE9F84F05460F4690461E4697
:1025D00000975148B0F80090A8F1200000F0FF08E3
:1025E0000A9800284ED1002449E00C2E07D108EBB0
:1025F00048004A4901EB800010F804A004E0484874
:1026000000EB081010F804A04FF0000B31E00AF0C6
:10261000800018B14048A0F8009003E041480088CD
:102620003D49088039462846FEF746FA4FEA4A6097
:102630004FEA106A781C87B23B480088A84204DC45
:102640003548A0F80090BDE8F88F0098381AB042DD
:102650000BD1009F681C85B233480088A84203DC78
:102660002D48A0F80090EEE706E00BF1010000F025
:10267000FF0BBBF1080FCADB00BF601CC4B2B44241
:10268000B3DB44E0002440E00C2E07D108EB480007
:10269000224901EB800010F804A004E0204800EB80
:1026A000081010F804A04FF0000B28E00AF080009A
:1026B00018B139462846FEF7FFF94FEA4A604FEA5B
:1026C000106A781C87B218484088A84203DC124878
:1026D000A0F80090B7E70098381AB0420BD1009FDD
:1026E000681C85B210480088A84203DC0A48A0F89C
:1026F0000090A8E706E00BF1010000F0FF0BBBF132
:10270000080FD3DB00BF601CC4B2B442BCDB02487C
:10271000A0F8009000BF96E7280000206034000871
:10272000D43800082A0000201C0100202DE9F847B9
:1027300004460D4690469946DDE9096704F0FF0A14
:1027400008EB04001FFA80F809EB05001FFA80F976
:1027500016E0444502DB5446A81985B24D4500DB1E
:1027600014E0002000903A78334629462046FFF7CF
:1027700029FF304606EBD07104EB61018CB27F1C5F
:1027800038787E2802DC38782028E2DA00BFBDE8FD
:10279000F8874FF0D841488070474FF0D841088003
:1027A000704700000248C0794FF0D8410880704758
:1027B0001C0100204FF0D84210805180704700006B
:1027C00008B50121482000F0A1F82020ADF8000054
:1027D00010208DF8030003208DF80200694604489C
:1027E000FDF741FF69460348FDF73DFF08BD0000C6
:1027F000000C01400018014010B5FDF719FE40F231
:102800009F5140F2E73000F0ABFB10BD70B50021E6
:1028100000230F22C47804B3154C246804F4E06448
:10282000C4F5E064210AC1F10403CA40447804FA03
:1028300003F184781440214309010E4C0678A15518
:10284000047804F01F050124AC4005786D11AD003B
:1028500005F1E025C5F8004109E0047804F01F0502
:102860000124AC40044D0678761145F8264070BD31
:102870000CED00E000E400E080E100E00020094908
:102880000860094908600949086009480949086061
:1028900009480A4908600A480A4908600A49086064
:1028A000704700000C0000201000002014000020E1
:1028B0000000884118000020CDCC4C3E1C000020B8
:1028C0000050C346200000202400002029B1064A01
:1028D00052690243044B5A6104E0034A526982433D
:1028E000014B5A61704700000010024029B1064AAE
:1028F000D2690243044BDA6104E0034AD26982439D
:10290000014BDA61704700000010024029B1064A0D
:1029100092690243044B9A6104E0034A926982433C
:10292000014B9A61704700000010024030B5002151
:102930000022002400232D4D6D6805F00C0121B10B
:10294000042905D0082923D105E0294D056022E09E
:10295000274D05601FE0254D6D6805F47012234D6D
:102960006D6805F48034022505EB92421CB9214DB7
:10297000554305600BE01D4D6D6805F400351DB134
:102980001C4D5543056002E0194D5543056002E0BA
:10299000174D056000BF00BF144D6D6805F0F001D4
:1029A0000909154D6B5C0568DD4045600F4D6D688C
:1029B00005F4E061090A104D6B5C4568DD408560F7
:1029C0000A4D6D6805F46051C90A0B4D6B5C456892
:1029D000DD40C560054D6D6805F44041890B074D2C
:1029E0006B5CC568B5FBF3F5056130BD00100240B6
:1029F00000127A0000093D002C0000203C0000205D
:102A000070B506460C461546FDF74AFF5420FDF703
:102A10001BFFFDF78DFFFDF743FC3046FDF714FF6C
:102A2000FDF786FFFDF73CFC2046FDF70DFFFDF7A7
:102A30007FFFFDF735FC2846FDF706FFFDF778FF21
:102A4000FDF72EFCFDF752FFFDF72AFC70BD10B517
:102A500000F002F810BD00000CB5002001900090BD
:102A60003348006840F480303149086000BF304886
:102A7000006800F4003000900198401C019000981C
:102A800018B90198B0F5A06FF1D12948006800F499
:102A9000003010B10120009001E00020009000986B
:102AA000012843D12348006840F010002149086004
:102AB0000846006820F0030008600846006840F0FF
:102AC000020008601A484068194948600846406892
:102AD00048600846406840F48060486008464068A6
:102AE00020F47C1048600846406840F4E8104860D4
:102AF0000846006840F08070086000BF0C4800681D
:102B000000F000700028F9D00948406820F0030068
:102B1000074948600846406840F00200486000BF2E
:102B20000348406800F00C000828F9D10CBD0000F3
:102B30000010024000200240042808D14FF0E0219C
:102B4000096941F004014FF0E022116107E04FF004
:102B5000E021096921F004014FF0E0221161704782
:102B600010B51348006840F001001149086008469C
:102B70004068104908400E494860084600680E4900
:102B800008400B4908600846006820F4802008606F
:102B90000846406820F4FE0048604FF41F0088603B
:102BA000FFF755FF4FF000600449086010BD0000BA
:102BB000001002400000FFF8FFFFF6FE08ED00E005
:102BC00010B500F041FB4FF4E13000F0F9FBFDF7E8
:102BD0001FFEFDF755FCFFF7F3FDFFF74FFEFFF774
:102BE0000BFEFDF77BFF10BD704721B1028842F05C
:102BF0000102028004E002884FF6FE731A40028050
:102C00007047000070B5002400220023058C4FF6A9
:102C1000FE7635400584028C8388048B4FF68F75D1
:102C20002C40B51E2C400D882C43751E2A400D8962
:102C30002A434D882A43144DA8420BD0134DA84275
:102C400008D0134DA84205D0124DA84202D0124D13
:102C5000A84213D14FF6F7752A404D892A434FF603
:102C6000FB752A408D882A434FF6FF652B404FF6AF
:102C7000FF552B408D892B43CD892B4383800483C3
:102C8000CD888586028470BD002C0140003401404F
:102C90000040014000440140004801400A46002134
:102CA000018B4FF6F7731940114301837047000001
:102CB00070B5002400220023058C4FF6EF763540D6
:102CC0000584028C8388048B48F6FF752C404FF6F0
:102CD000FF452C400D884FF6FF7606EA05252C436C
:102CE0004FF6DF752A400D8906EA05152A434D88FF
:102CF00006EA05152A43154DA84202D0144DA842F4
:102D00001DD14FF67F752A404D894FF6FF7606EAB2
:102D100005152A434FF6BF752A408D8806EA05152A
:102D20002A434FF6FF352B404FF2FF752B408D891C
:102D300006EA85052B43CD8906EA85052B4383806A
:102D40000483CD880587028470BD0000002C0140FB
:102D5000003401400A460021018B4FF2FF731940F5
:102D60004FF6FF7303EA0223194301837047000003
:102D700070B5002400220023058C4FF6FF66354015
:102D80000584028C8388848B4FF68F752C404FF618
:102D9000FC752C400D882C434FF6FF552A400D89B9
:102DA0004FF6FF7606EA05252A434D8806EA0525F3
:102DB0002A43154DA84202D0144DA8421DD14FF20E
:102DC000FF752A404D894FF6FF7606EA05252A430E
:102DD0004FF6FF352A408D8806EA05252A434EF630
:102DE000FF752B404DF6FF752B408D8906EA0515C2
:102DF0002B43CD8906EA05152B4383808483CD8838
:102E00008587028470BD0000002C01400034014021
:102E10000A460021818B4FF6F773194011438183D5
:102E20007047000070B5002200230024058C4EF688
:102E3000FF7635400584038C8488828B48F6FF75C5
:102E40002A404FF6FF452A400D884FF6FF7606EAE6
:102E500005252A434DF6FF752B400D8906EA0535F9
:102E60002B434D8806EA05352B430B4DA84202D073
:102E70000A4DA84208D14BF6FF752C408D894FF6BC
:102E8000FF7606EA85152C4384808283CD88A0F8DE
:102E90004050038470BD0000002C0140003401400C
:102EA0000A460021818B4FF2FF7319404FF6FF73E2
:102EB00003EA02231943818370470000002202883D
:102EC0001D4B98420ED01D4B98420BD0B0F1804F55
:102ED00008D01B4B984205D01A4B984202D01A4B8F
:102EE000984204D14FF68F731A404B881A43174B00
:102EF000984207D0164B984204D04FF6FF431A4031
:102F0000CB881A4302808B8883850B8803850A4B04
:102F100098420BD0094B984208D00E4B984205D0EE
:102F20000D4B984202D00D4B984201D10B7A03868B
:102F30000123838270470000002C014000340140CF
:102F40000004004000080040000C00400010004059
:102F5000001400400040014000440140004801408E
:102F600030B589B005460C4601210220FFF7BEFCB2
:102F700001211120FFF7CAFC01212648FDF7FEFBC5
:102F80004FF47070ADF8200018208DF82300032056
:102F90008DF8220008A92048FDF765FBADF8185010
:102FA000ADF814400020ADF81A00ADF8160005A9E0
:102FB0001A48FFF783FF7020ADF804000120ADF838
:102FC00006000220ADF80C0001A91448FFF71AFE14
:102FD00008211248FFF762FE01A91048FFF768FEBA
:102FE00008210E48FFF7B6FE01A90C48FFF7C0FE06
:102FF00008210A48FFF70CFF01A90848FFF712FF54
:1030000008210648FFF74CFF01210448FFF7EDFDBA
:1030100009B030BD000C1A0000100140000400404F
:1030200010B540F225511D4800F04AF810B31B4876
:1030300000F002F9C4B21A48008800F40040C8B990
:103040001748008800F4804060B10A2C03D00020AB
:103050001349088020E01248008840F400401049DD
:10306000088019E00D2C06D10D48008840F48040FE
:103070000B49088010E00A480088C0F30D00094998
:103080000C5407480088401C054908800846008801
:10309000C72801DD0020088010BD00000038014075
:1030A000080000205400002021B1828942F400521F
:1030B000828104E082894DF6FF731A408281704755
:1030C00070B50246002400230025002040F66A1651
:1030D000B14200D100BFC1F3421501F01F03012628
:1030E00006FA03F3012D02D19689334006E0022D42
:1030F00002D1168A334001E0968A33400C12012631
:1031000006FA04F41688344013B10CB1012000E033
:10311000002070BDF0B503460024002600250020E5
:1031200040F66A17B94200D100BF1846C1F34214F5
:1031300001F01F06012707FA06F5012C01D10C301A
:1031400004E0022C01D1103000E014301AB10768FD
:103150002F43076002E00768AF430760F0BD00003F
:103160002DE9F04786B005460E460024A24600BF72
:10317000A1460027B08900B100BF2F462C8A4CF62B
:10318000FF700440F08804432C82AC894EF6F310A3
:103190000440B08831890843718908430443AC81F5
:1031A000AC8A4FF6FF400440B0890443AC8201A8CA
:1031B000FFF7BCFB1F48874202D1DDF810A001E0F9
:1031C000DDF80CA0A88900F4004040B10AEBCA0069
:1031D00000EB0A1031684900B0FBF1F807E00AEB98
:1031E000CA0000EB0A1031688900B0FBF1F86420D6
:1031F000B8FBF0F004012009642101FB1089A889C3
:1032000000F4004040B1322000EBC900B0FBF1F007
:1032100000F00700044308E0322000EB09106421AD
:10322000B0FBF1F000F00F0004432C8106B0BDE8C4
:10323000F08700000038014001468888C0F308008C
:10324000704700BF7047000010B56FF00400FFF733
:1032500073FC0A4800680A49B0FBF1F0094908709C
:103260000846007800EB4001C1EBC0104FF6FF713B
:1032700001EAC0000449088010BD000040000020A1
:1032800000127A0000000020020000200146114ACE
:1032900012884A434FF0E0235A6100229A611A468D
:1032A000126942F001021A6100BF4FF0E02210697A
:1032B00000F001021AB100F48032002AF5D04FF07C
:1032C000E022126922F001024FF0E0231A6100228D
:1032D0009A617047020000200146114A12784A4361
:1032E0004FF0E0235A6100229A611A46126942F0B7
:1032F00001021A6100BF4FF0E022106900F00102E4
:103300001AB100F48032002AF5D04FF0E0221269A1
:1033100022F001024FF0E0231A6100229A61704707
:10332000000000201CB5FFF74BFC2DE04FF4784067
:103330001649088016A010210B46C822CDE90010BE
:1033400032211E20FFF7F2F916A010210B46C822E9
:10335000CDE9001046211E20FFF7E8F914A0102146
:103360000B46C822CDE900105A211E20FFF7DEF9D6
:103370001248006808B9012000E000200F490860E9
:103380004FF47A70FFF782FFD0E70000280000209A
:10339000576172536869702053544D3332205E5F19
:1033A0005E0000005446544C43442054455354009E
:1033B00049206D616B6520697421000094012342EE
:1033C00010B586B00446012144F20400FFF79EFACE
:1033D0004FF40070ADF8140003208DF8160018208B
:1033E0008DF8170005A91C48FDF73DF94FF48060E2
:1033F000ADF8140004208DF8170005A91648FDF754
:1034000032F925208DF8000003208DF801008DF899
:10341000020001208DF803006846FFF7F7F90194D8
:103420000020ADF80800ADF80A00ADF80C00ADF8CA
:1034300010000C20ADF80E0001A90848FFF790FE1F
:10344000012240F225510548FFF764FE012103489F
:10345000FFF72AFE06B010BD000801400038014009
:10346000000000000000000000000000000000005C
:103470003F4000000000000000003000400030002D
:103480004000000009000BC03D000BC03D000900DA
:1034900018C024407FE0224031800000180024C082
:1034A0001B000D803240018003801C4027401C809F
:1034B0000740004010006000000000000000000015
:1034C0000000000000001F8020404020000040203D
:1034D00020401F8000000000090006001F80060039
:1034E00009000000040004003F8004000400000004
:1034F0000010006000000000000000000400040054
:10350000040004000400000000000040000000006F
:1035100000000000002001C006003800400000004C
:103520001F802040204020401F80000000001040ED
:103530003FC000400000000018C02140224024404D
:103540001840000010802040244024401B800000D0
:1035500002000D0011003FC0014000003C802440EB
:1035600024402440238000001F8024402440344015
:10357000038000003000200027C038002000000039
:103580001B802440244024401B8000001C0022C0DB
:10359000224022401F800000000000000840000080
:1035A00000000000000000000460000000000000B7
:1035B000000004000A0011002080404009000900BA
:1035C00009000900090000000000404020801100AF
:1035D0000A00040018002000234024001800000006
:1035E0001F802040274029401F400000004007C0A6
:1035F00039000F0001C0004020403FC0244024405B
:103600001B8000001F8020402040204030800000B0
:1036100020403FC0204020401F80000020403FC08D
:1036200024402E4030C0000020403FC024402E00E7
:10363000300000000F001080204022403380020044
:1036400020403FC0040004003FC0204020402040F4
:103650003FC02040204000000060202020203FC0CC
:103660002000200020403FC024400B0030C02040FC
:1036700020403FC020400040004000C03FC03C0010
:1036800003C03C003FC0000020403FC00C4023006E
:103690003FC020001F802040204020401F800000AD
:1036A00020403FC024402400180000001F8021401B
:1036B000214020E01FA0000020403FC02440260001
:1036C00019C0004018C0244024402240318000002E
:1036D000300020403FC020403000000020003F80EC
:1036E000004000403F80200020003E0001C0070055
:1036F00038002000380007C03C0007C03800000038
:10370000204039C0060039C0204000002000384069
:1037100007C0384020000000304021C0264038401B
:1037200020C00000000000007FE04020402000009A
:10373000000070000C0003800040000000004020EA
:1037400040207FE00000000000002000400020003A
:103750000000000000100010001000100010001009
:103760000000000040000000000000000000028097
:103770000540054003C0004020003FC00440044015
:103780000380000000000380044004400640000065
:1037900000000380044024403FC00040000003803C
:1037A0000540054003400000000004401FC02440C5
:1037B00024402000000002E005500550065004207F
:1037C00020403FC00440040003C00040000004400B
:1037D00027C000400000000000100010041027E087
:1037E0000000000020403FC00140070004C004402A
:1037F000204020403FC000400040000007C00400BF
:1038000007C0040003C00000044007C004400400D7
:1038100003C0004000000380044004400380000017
:10382000041007F0045004400380000000000380EF
:103830000440045007F00010044007C00240040098
:1038400004000000000006400540054004C00000E0
:10385000000004001F8004400040000004000780B6
:103860000040044007C000400400070004C001807D
:1038700006000400060001C0070001C006000000A9
:10388000044006C0010006C00440000004100710F8
:1038900004E00180060004000000044005C006406A
:1038A000044000000000000004007BE04020000015
:1038B000000000000000FFF00000000000004020B9
:1038C0007BE0040000000000400080004000200079
:1038D0002000400000000000000000000000000088
:1038E000000000000000000000001FCC000C0000E1
:1038F00000000000000008003000600008003000F8
:1039000060000000022003FC1E20022003FC1E2099
:103910000220000000000E1811043FFF10840C78F4
:10392000000000000F0010840F3800C007781884D2
:103930000078000000780F8410C411240E9800E471
:10394000008400080800680070000000000000000B
:103950000000000000000000000007E0181820042C
:1039600040020000000040022004181807E0000098
:10397000000000000240024001800FF00180024080
:10398000024000000080008000800FF8008000806E
:10399000008000000001000D000E0000000000008B
:1039A0000000000000000080008000800080008097
:1039B000008000800000000C000C000000000000EF
:1039C00000000000000000060018006001800600F2
:1039D00018002000000007F0080810041004080870
:1039E00007F000000000080408041FFC00040004A5
:1039F0000000000000000E0C10141024104411846C
:103A00000E0C000000000C181004110411041288A0
:103A10000C700000000000E00320042408241FFCB8
:103A20000024000000001F98108411041104108865
:103A300010700000000007F00888110411041888B5
:103A40000070000000001C00100010FC13001C009F
:103A50001000000000000E3811441084108411443E
:103A60000E38000000000700088C1044104408883D
:103A700007F00000000000000000030C030C000031
:103A8000000000000000000000010106000000002E
:103A9000000000000000008001400220041008081F
:103AA0001004000002200220022002200220022036
:103AB0000220000000001004080804100220014049
:103AC0000080000000000E001200100C106C10802E
:103AD0000F00000003E00C1813E4142417C4082896
:103AE00007D000000004003C03C41C40074000E471
:103AF000001C000410041FFC1104110411040E88A2
:103B00000070000003E00C181004100410041008EA
:103B10001C10000010041FFC1004100410040808FE
:103B200007F0000010041FFC1104110417C4100456
:103B30000818000010041FFC1104110017C0100029
:103B40000800000003E00C181004100410441C7856
:103B50000040000010041FFC1084008000801084CE
:103B60001FFC10040000100410041FFC10041004BB
:103B70000000000000030001100110011FFE1000F2
:103B80001000000010041FFC110403801464181CB2
:103B90001004000010041FFC1004000400040004C2
:103BA000000C000010041FFC1F0000FC1F001FFC85
:103BB0001004000010041FFC0C04030000E01018A7
:103BC0001FFC100007F00808100410041004080877
:103BD00007F0000010041FFC10841080108010807B
:103BE0000F00000007F0081810241024101C080A09
:103BF00007F2000010041FFC1104110011C0113065
:103C00000E0C000400000E1C1104108410841044DB
:103C10001C3800001800100010041FFC10041000D5
:103C20001800000010001FF8100400040004100425
:103C30001FF8100010001E0011E0001C007013801F
:103C40001C0010001FC0103C00E01F0000E0103CF2
:103C50001FC000001004180C163401C001C0163437
:103C6000180C100410001C00130400FC13041C00AA
:103C7000100000000804101C1064108413041C04BD
:103C8000101800000000000000007FFE400240020B
:103C900040020000000030000C0003800060001CA7
:103CA0000003000000004002400240027FFE0000CE
:103CB0000000000000000000200040004000400024
:103CC00020000000000100010001000100010001CE
:103CD0000001000100004000400020000000000042
:103CE0000000000000000098012401440144014448
:103CF00000FC000410001FFC00880104010400887F
:103D0000007000000000007000880104010401043C
:103D10000088000000000070008801040104110800
:103D20001FFC0004000000F8014401440144014468
:103D300000C800000000010401040FFC110411047C
:103D400011001800000000D601290129012901C92C
:103D50000106000010041FFC0084010001000104A2
:103D600000FC000400000104190419FC0004000414
:103D7000000000000000000300010101190119FE0C
:103D80000000000010041FFC0024004001B4010CDE
:103D9000010400000000100410041FFC00040004D3
:103DA00000000000010401FC0104010001FC010409
:103DB000010000FC010401FC008401000100010479
:103DC00000FC0004000000F80104010401040104E7
:103DD00000F80000010101FF0085010401040088D2
:103DE000007000000000007000880104010401055B
:103DF00001FF00010104010401FC00840104010031
:103E000001800000000000CC0124012401240124D1
:103E10000198000000000100010007F801040104FE
:103E200000000000010001F8000400040004010883
:103E300001FC0004010001800170000C0010016011
:103E40000180010001F0010C003001C00030010CC4
:103E500001F0010000000104018C00740170018C6C
:103E600001040000010101810171000E00180160D0
:103E70000180010000000184010C0134014401842F
:103E8000010C0000000000000000000001003EFCEA
:103E9000400240020000000000000000FFFF0000A0
:103EA000000000000000400240023EFC0100000053
:103EB0000000000000006000800080004000400022
:103EC00020002000E43E0008000000205400000014
:103ED0006C010008383F000854000020340700003F
:103EE0008801000800000000000000000000000041
:103EF00000000000000000000000000000000000C2
:103F00000000000000000000000000000000FFFFB3
:103F1000000000000102030401020304060708096F
:103F20000204060800A24A0400000000000000008D
:083F3000010203040607080961
:0400000508000131BD
:00000001FF
