:020000040800F2
:1000000078070020D5010008DD010008DF010008A5
:10001000E1010008E3010008E5010008000000001C
:10002000000000000000000000000000E7010008E0
:10003000E901000800000000EB010008ED010008E4
:10004000EF010008EF010008EF010008EF010008D0
:10005000EF010008EF010008EF010008EF010008C0
:10006000EF010008EF010008EF010008C1040008DB
:10007000E104000801050008210500084105000809
:100080006105000881050008EF010008EF01000884
:10009000EF010008EF010008EF010008EF01000880
:1000A000EF010008EF010008EF010008EF01000870
:1000B000B1100008EF010008EF010008EF0100088F
:1000C000EF010008EF010008EF010008EF01000850
:1000D000EF010008E9140008EF010008EF01000833
:1000E000EF010008EF010008EF010008EF01000830
:1000F000EF010008EF010008EF010008EF01000820
:10010000EF010008EF010008EF010008EF0100080F
:10011000EF010008EF010008EF010008EF010008FF
:10012000A1050008C1050008E5050008050600084E
:1001300000F002F800F03FF80AA090E8000C8244BA
:100140008344AAF10107DA4501D100F034F8AFF297
:10015000090EBAE80F0013F0010F18BFFB1A43F0A5
:10016000010318474C1700006C170000103A24BF19
:1001700078C878C1FAD8520724BF30C830C144BF0C
:1001800004680C607047000000230024002500264E
:10019000103A28BF78C1FBD8520728BF30C148BFEA
:1001A0000B607047642900F07780002070471FB50E
:1001B0001FBD10B510BD00F037F91146FFF7F7FF6E
:1001C00001F0FCFA00F055F903B4FFF7F2FF03BCAD
:1001D00001F09BFA0948804709480047FEE7FEE71F
:1001E000FEE7FEE7FEE7FEE7FEE7FEE7FEE7FEE7E7
:1001F00004480549054A064B704700002D100008C9
:1002000031010008780100207807002078030020E1
:1002100078030020704700000FB4044910B503AA0A
:10022000029800F0D3F810BC5DF814FB0400002025
:100230002DE9F0410E460446002020622046E16888
:10024000884730B3252805D0D4E901219047206A9A
:10025000401CF2E7E168204600278847050018D0D7
:10026000A5F14100192802D820354FF40067324625
:10027000294620462760FFF795FF40B1012804D0AA
:10028000F61D26F007060836D8E7361DD6E72846BD
:10029000DAE7206ABDE8F0812DE9F0410646002446
:1002A00010687529314616A510D0AFF300800028DC
:1002B00002DA404213A507E031688A0701D512A58A
:1002C00002E0490704D511A5012401E0AFF3008045
:1002D00000210A2206F1240709E0B0FBF2FCB0FB82
:1002E000F2F302FB1C00303078541846491C0028F9
:1002F000F3D123462A463046BDE8F04100F00CB861
:10030000000000002D0000002B0000002000000075
:1003100070477047704770472DE9F0470D46994682
:100320009246044600F124080168880604D5E06975
:1003300021F01001216000E00120A84201DD471BEF
:1003400000E00027A1697A1902EB0900081AA061F0
:100350002078C00602D42046AFF30080002608E0D3
:10036000D4E901211AF806009047206A401C761C47
:1003700020624E45F4DB2078C0060AD52046AFF354
:10038000008006E0D4E9012130209047206A401C1B
:100390002062381EA7F10107F4DC07E0D4E901214F
:1003A00018F805009047206A401C2062281EA5F11D
:1003B0000105F3DC2046AFF300802078000602D56B
:1003C0000220BDE8F0870120FBE70000074B70B575
:1003D0000D467B4400F011F80446284600F020F852
:1003E00010B14FF0FF3070BD204670BDCB13000040
:1003F00001694A1C02610878704700B58FB0CDE9E9
:1004000001310021059105497944CDE903101146D8
:100410006846FFF70DFF0FB000BD0000E5FFFFFFCE
:10042000007B00F080007047754600F02BF8AE4668
:1004300005006946534620F00700854618B020B5F0
:10044000FFF7D6FEBDE820404FF000064FF0000752
:100450004FF000084FF0000B21F00701AC46ACE86C
:10046000C009ACE8C009ACE8C009ACE8C0098D46D9
:10047000704710B50446AFF300802046BDE8104039
:10048000FFF7A2BE004870471801002000B5012008
:100490000549086000F00CF800200449C1F8A801E3
:1004A00000F006F800BD0000A88121420080214232
:1004B000002001E0411CC8B22828FBDB70477047D0
:1004C00010B50548006800F00F040348446020465A
:1004D000FFF7F5FF10BD000000000240704700006C
:1004E00010B505480068C0F30314200102494860B4
:1004F0002046FFF7F3FF10BD0000024070470000E8
:1005000010B505480068C0F3032420020249486082
:100510002046FFF7F3FF10BD0000024070470000C7
:1005200010B505480068C0F3033420030249486051
:100530002046FFF7F3FF10BD0000024070470000A7
:1005400010B505480068C0F3034420040249486020
:100550002046FFF7F3FF10BD000002407047000087
:1005600010B505480068C0F30354200502494860EF
:100570002046FFF7F3FF10BD000002407047000067
:1005800010B505480068C0F30364200602494860BE
:100590002046FFF7F3FF10BD000002407047000047
:1005A00010B50548006800F00F040348001D046002
:1005B0002046FFF7F3FF10BD000402407047000023
:1005C00010B506480068C0F3031420010349091D53
:1005D00008602046FFF7F2FF10BD00000004024053
:1005E0007047000010B506480068C0F303242002DD
:1005F0000349091D08602046FFF7F2FF10BD000007
:100600000004024010B50C480068C0F3033434B154
:1006100020030949091D0860204600F00FF806482C
:100620000068C0F3034434B120040349091D086085
:10063000204600F004F810BD0004024070477047E7
:1006400008B501214FF4907000F046FB4FF40040D4
:10065000ADF8000010208DF8030003208DF8020093
:100660006946094800F0BEF84FF4FE70ADF800008E
:1006700010208DF8030003208DF80200694603481E
:1006800000F0B0F808BD0000001401400020014057
:1006900010B50121082000F01FFBCB2230210820DB
:1006A00000F015FCCB223021092000F010FCCB22F9
:1006B00030210A2000F00BFCCB2230210B2000F06F
:1006C00006FC01222021142000F001FC012220213F
:1006D000152000F0FCFB01222021162000F0F7FB82
:1006E00001222021172000F0F2FB19220021102006
:1006F00000F0EDFB19220021112000F0E8FB192287
:100700000021122000F0E3FB19220021132000F049
:10071000DEFB00221146192000F0D9FB0C22C22179
:100720001B2000F0D4FB002250211E2000F0CFFB44
:10073000002250211F2000F0CAFB0022502120205F
:1007400000F0C5FB00225021212000F0C0FB012257
:1007500016211A2000F0BBFB10BD000010B50446A6
:1007600034B1012C11D0022C1CD0032C34D126E042
:100770000121002000F02AFB194990FBF1F201FB56
:100780001200642190FBF1F010BD0321022000F063
:100790001DFB134990FBF1F201FB1200642190FB59
:1007A000F1F0F1E70521042000F010FB0C4990FB6B
:1007B000F1F201FB1200642190FBF1F0E4E7072164
:1007C000062000F003FB064990FBF1F201FB12004A
:1007D000642190FBF1F0D7E74FF0FF30D4E7000041
:1007E00040420F002DE9F04102460025002600207E
:1007F00000230024002791F803C00CF00F0591F8A6
:1008000003C00CF0100CBCF1000F03D091F802C033
:100810004CEA050591F800C0BCF1000F31D0146816
:1008200000202BE04FF0010C0CFA00F3B1F800C0EF
:100830000CEA03069E4220D183004FF00F0C0CFA05
:1008400003F7BC4305FA03FC4CEA040491F803C027
:10085000BCF1280F06D14FF0010C0CFA00FCC2F8D5
:1008600014C00AE091F803C0BCF1480F05D14FF065
:10087000010C0CFA00FCC2F810C0401C0828D1D3AF
:100880001460B1F800C0BCF1FF0F34DD54680020E3
:100890002EE000F1080C4FF0010808FA0CF3B1F853
:1008A00000C00CEA03069E4221D183004FF00F0CDA
:1008B0000CFA03F7BC4305FA03FC4CEA040491F874
:1008C00003C0BCF1280F05D100F1080C08FA0CF8A0
:1008D000C2F8148091F803C0BCF1480F07D100F1B1
:1008E000080C4FF0010808FA0CF8C2F81080401C00
:1008F0000828CED35460BDE8F0810000F0B50A4668
:10090000002300240021002500F00046B6F1004F2E
:1009100002D11D4EF16901E01B4E7168C0F3034521
:1009200083B200F44016B6F5401F08D121F0706183
:10093000154E766826F07066134F7E6012E000F464
:100940008016B6F5801F06D1032606FA05F4A143EA
:1009500041F0706106E0460D360103FA06F6B14338
:1009600041F0706122B1460D360103FA06F63143BB
:1009700000F00046B6F1004F02D1034EF16101E0F4
:10098000014E7160F0BD0000000001400161704740
:1009900000B5FFF78DFD0E48006820F470400C494B
:1009A00008600846006840F440500860002009498B
:1009B0000860FFF77DFD01200749C1F8A801FFF796
:1009C00077FD00200349091F0860FFF771FD00BD96
:1009D000040C0140AC8121420080214208B5012174
:1009E000082000F079F94FF44060ADF800001020C5
:1009F0008DF8030003208DF8020069460448FFF7D4
:100A0000F1FE4FF440610248FFF7C0FF08BD00004F
:100A1000000C014010B504460F48006820F47040F7
:100A20000D4908600846006840F400400860002254
:100A300000230DE05006020E08480068012802D18C
:100A400042F0010200E000BFFFF720FD581CC3B2D6
:100A5000082BEFDB104610BD040C01402C81214215
:100A600000B502461248006820F470401049086042
:100A70000846006840F44050086000200D490860B6
:100A8000002311E002F0800020B101200949091D76
:100A9000086003E000200749091D0860FFF7F6FC25
:100AA0005006020E581CC3B2082BEBDB00BD000041
:100AB000040C0140A881214200B50F48006820F4D1
:100AC00070400D4908600846006840F440500860D6
:100AD00001200A4908600A49C1F8A801FFF7E8FCAB
:100AE000002006490860FFF7E3FCFFF7E1FC002067
:100AF0000349C1F8A80100BD040C0140AC812142AA
:100B00000080214200B50D48006820F470400B4978
:100B100008600846006840F4405008600120084919
:100B2000086000200749C1F8AC01FFF7C1FC0120B3
:100B30000349091D0860FFF7BBFC00BD040C014020
:100B4000A88121420080214200B50022144800689B
:100B500020F47040124908600846006840F40040E4
:100B6000086001200F490860FFF7A2FC01200E4930
:100B7000C1F8A801FFF79CFC07E0501CC2B2FA2A9A
:100B800003DDFFF7BFFF012000BD06488038006885
:100B90000028F2D10349091F086000BFF4E70000F4
:100BA000040C0140AC8121420080214208B50121A2
:100BB000482000F091F82020ADF8000010208DF8BA
:100BC000030003208DF8020069460448FFF70AFE7F
:100BD00069460348FFF706FE08BD0000000C01400F
:100BE0000018014010B5FFF72BFD40F29F5140F275
:100BF000E73000F019FC10BD70B5002100230F2272
:100C0000C47804B3154C246804F4E064C4F5E064CB
:100C1000210AC1F10403CA40447804FA03F184783C
:100C20001440214309010E4C0678A155047804F0C4
:100C30001F050124AC4005786D11AD0005F1E025DC
:100C4000C5F8004109E0047804F01F050124AC4018
:100C5000044D0678761145F8264070BD0CED00E095
:100C600000E400E080E100E0002009490860094953
:100C700008600949086009480949086009480A49A3
:100C800008600A480A4908600A490860704700007D
:100C90000C000020100000201400002000008841FB
:100CA00018000020CDCC4C3E1C0000200050C34654
:100CB000200000202400002029B1064AD269024306
:100CC000044BDA6104E0034AD2698243014BDA61E2
:100CD000704700000010024029B1064A92690243A1
:100CE000044B9A6104E0034A92698243014B9A6182
:100CF000704700000010024030B50021002200249F
:100D000000232D4D6D6805F00C0121B1042905D09B
:100D1000082923D105E0294D056022E0274D056013
:100D20001FE0254D6D6805F47012234D6D6805F4C4
:100D30008034022505EB92421CB9214D55430560D4
:100D40000BE01D4D6D6805F400351DB11C4D55437C
:100D5000056002E0194D5543056002E0174D05603E
:100D600000BF00BF144D6D6805F0F0010909154D75
:100D70006B5C0568DD4045600F4D6D6805F4E06112
:100D8000090A104D6B5C4568DD4085600A4D6D6851
:100D900005F46051C90A0B4D6B5C4568DD40C560C8
:100DA000054D6D6805F44041890B074D6B5CC568C6
:100DB000B5FBF3F5056130BD0010024000127A006A
:100DC00000093D002800002038000020F8B5054645
:100DD0000C46FFF771FE5420FFF742FEFFF7B4FE0A
:100DE000FFF766FB2846FFF73BFEFFF7ADFEFFF778
:100DF0005FFBFFF787FEFFF75BFBFFF75DFE55200C
:100E0000FFF72EFEFFF7A0FEFFF752FB0120FFF7D2
:100E100001FE8DF800009DF800000007000E8DF81F
:100E200000009DF8000000118DF80000FFF7B0FDF4
:100E3000FFF73EFB0120FFF7EDFD8DF80100FFF706
:100E4000A7FDFFF75FFEFFF733FBFFF735FE5420EA
:100E5000FFF706FEFFF778FEFFF72AFB2046FFF7B5
:100E6000FFFDFFF771FEFFF723FBFFF74BFEFFF7D8
:100E70001FFBFFF721FE5520FFF7F2FDFFF764FE91
:100E8000FFF716FB0120FFF7C5FD8DF80200FFF705
:100E90007FFDFFF70DFB0120FFF7BCFD8DF8030080
:100EA000FFF776FDFFF72EFEFFF702FB9DF800002F
:100EB00000069DF8011040EA01409DF8021040EA4A
:100EC00001209DF8031040EA01063046F8BD70B5D8
:100ED00006460C461546FFF7EFFD5420FFF7C0FD10
:100EE000FFF732FEFFF7E4FA3046FFF7B9FDFFF7F0
:100EF0002BFEFFF7DDFA2046FFF7B2FDFFF724FED9
:100F0000FFF7D6FA2846FFF7ABFDFFF71DFEFFF708
:100F1000CFFAFFF7F7FDFFF7CBFA70BD10B500F081
:100F200001F810BD0CB50020019000903348006816
:100F300040F480303149086000BF3048006800F458
:100F4000003000900198401C0190009818B9019859
:100F5000B0F5A06FF1D12948006800F4003010B15D
:100F60000120009001E0002000900098012843D16A
:100F70002348006840F010002149086008460068D6
:100F800020F0030008600846006840F00200086096
:100F90001A48406819494860084640684860084651
:100FA000406840F4806048600846406820F47C1047
:100FB00048600846406840F4E81048600846006809
:100FC00040F08070086000BF0C48006800F00070BE
:100FD0000028F9D00948406820F00300074948601C
:100FE0000846406840F00200486000BF034840687F
:100FF00000F00C000828F9D10CBD000000100240E0
:1010000000200240042808D14FF0E021096941F096
:1010100004014FF0E022116107E04FF0E02109697F
:1010200021F004014FF0E0221161704710B5134820
:10103000006840F001001149086008464068104906
:1010400008400E494860084600680E4908400B49B0
:1010500008600846006820F4802008600846406860
:1010600020F4FE0048604FF41F008860FFF756FF31
:101070004FF000600449086010BD000000100240FD
:101080000000FFF8FFFFF6FE08ED00E010B500F0ED
:101090003FFB4FF4E13000F0BBFBFFF79FFCFFF795
:1010A000F7FAFFF783FDFFF7DFFDFFF79BFD10BDAC
:1010B000704721B1028842F00102028004E00288F8
:1010C0004FF6FE731A4002807047000070B500248E
:1010D00000220023058C4FF6FE7635400584028CF5
:1010E0008388048B4FF68F752C40B51E2C400D88DD
:1010F0002C43751E2A400D892A434D882A43144DDE
:10110000A8420BD0134DA84208D0134DA84205D0D9
:10111000124DA84202D0124DA84213D14FF6F775D6
:101120002A404D892A434FF6FB752A408D882A4371
:101130004FF6FF652B404FF6FF552B408D892B4313
:10114000CD892B4383800483CD888586028470BD3E
:10115000002C0140003401400040014000440140A7
:10116000004801400A460021018B4FF6F7731940F1
:10117000114301837047000070B500240022002352
:10118000058C4FF6EF7635400584028C8388048BFE
:1011900048F6FF752C404FF6FF452C400D884FF662
:1011A000FF7606EA05252C434FF6DF752A400D89A8
:1011B00006EA05152A434D8806EA05152A43154D0A
:1011C000A84202D0144DA8421DD14FF67F752A4087
:1011D0004D894FF6FF7606EA05152A434FF6BF758F
:1011E0002A408D8806EA05152A434FF6FF352B4025
:1011F0004FF2FF752B408D8906EA85052B43CD897B
:1012000006EA85052B4383800483CD880587028405
:1012100070BD0000002C0140003401400A4600214E
:10122000018B4FF2FF7319404FF6FF7303EA02235D
:10123000194301837047000070B500240022002389
:10124000058C4FF6FF6635400584028C8388848BBD
:101250004FF68F752C404FF6FC752C400D882C43B3
:101260004FF6FF552A400D894FF6FF7606EA052511
:101270002A434D8806EA05252A43154DA84202D087
:10128000144DA8421DD14FF2FF752A404D894FF6EB
:10129000FF7606EA05252A434FF6FF352A408D885A
:1012A00006EA05252A434EF6FF752B404DF6FF75DD
:1012B0002B408D8906EA05152B43CD8906EA0515D5
:1012C0002B4383808483CD888587028470BD000092
:1012D000002C0140003401400A460021818B4FF66A
:1012E000F7731940114381837047000070B50022E5
:1012F00000230024058C4EF6FF7635400584038CD0
:101300008488828B48F6FF752A404FF6FF452A40B5
:101310000D884FF6FF7606EA05252A434DF6FF7540
:101320002B400D8906EA05352B434D8806EA053525
:101330002B430B4DA84202D00A4DA84208D14BF6D0
:10134000FF752C408D894FF6FF7606EA85152C43F4
:1013500084808283CD88A0F84050038470BD000053
:10136000002C0140003401400A460021818B4FF2DD
:10137000FF7319404FF6FF7303EA02231943818379
:1013800070470000002202881D4B98420ED01D4B72
:1013900098420BD0B0F1804F08D01B4B984205D03B
:1013A0001A4B984202D01A4B984204D14FF68F73D1
:1013B0001A404B881A43174B984207D0164B984255
:1013C00004D04FF6FF431A40CB881A4302808B8823
:1013D00083850B8803850A4B98420BD0094B9842B2
:1013E00008D00E4B984205D00D4B984202D00D4BC1
:1013F000984201D10B7A0386012383827047000053
:10140000002C01400034014000040040000800406E
:10141000000C00400010004000140040004001405B
:10142000004401400048014030B589B005460C46F3
:1014300001210220FFF740FC01211120FFF74CFCA5
:1014400001212648FFF75AFA4FF47070ADF82000DA
:1014500018208DF8230003208DF8220008A92048C9
:10146000FFF7C0F9ADF81850ADF814400020ADF802
:101470001A00ADF8160005A91A48FFF783FF70207F
:10148000ADF804000120ADF806000220ADF80C0014
:1014900001A91448FFF71AFE08211248FFF762FE5F
:1014A00001A91048FFF768FE08210E48FFF7B6FEB5
:1014B00001A90C48FFF7C0FE08210A48FFF70CFFFE
:1014C00001A90848FFF712FF08210648FFF74CFF63
:1014D00001210448FFF7EDFD09B030BD000C1A00F2
:1014E000001001400004004010B540F225511D4895
:1014F00000F04AF810B31B4800F002F9C4B21A48D1
:10150000008800F40040C8B91748008800F4804003
:1015100060B10A2C03D000201349088020E0124853
:10152000008840F400401049088019E00D2C06D1D5
:101530000D48008840F480400B49088010E00A48BC
:101540000088C0F30D0009490C5407480088401C6E
:101550000549088008460088C72801DD002008806A
:1015600010BD00000038014008000020500000209D
:1015700021B1828942F40052828104E082894DF6D1
:10158000FF731A408281704770B502460024002321
:101590000025002040F66A16B14200D100BFC1F319
:1015A000421501F01F03012606FA03F3012D02D1B3
:1015B0009689334006E0022D02D1168A334001E0BD
:1015C000968A33400C12012606FA04F41688344039
:1015D00013B10CB1012000E0002070BDF0B503464E
:1015E000002400260025002040F66A17B94200D1E9
:1015F00000BF1846C1F3421401F01F06012707FA85
:1016000006F5012C01D10C3004E0022C01D1103080
:1016100000E014301AB107682F43076002E0076842
:10162000AF430760F0BD00002DE9F04786B00546E6
:101630000E460024A24600BFA1460027B08900B193
:1016400000BF2F462C8A4CF6FF700440F0880443FC
:101650002C82AC894EF6F3100440B08831890843DF
:10166000718908430443AC81AC8A4FF6FF400440C3
:10167000B0890443AC8201A8FFF73EFB1F488742B4
:1016800002D1DDF810A001E0DDF80CA0A88900F47B
:10169000004040B10AEBCA0000EB0A103168490073
:1016A000B0FBF1F807E00AEBCA0000EB0A10316862
:1016B0008900B0FBF1F86420B8FBF0F004012009C8
:1016C000642101FB1089A88900F4004040B1322058
:1016D00000EBC900B0FBF1F000F00700044308E0A4
:1016E000322000EB09106421B0FBF1F000F00F0094
:1016F00004432C8106B0BDE8F087000000380140AB
:1017000001468888C0F30800704700BF704700009A
:1017100010B56FF00400FFF775FC0A4800680A492D
:10172000B0FBF1F0094908700846007800EB400171
:10173000C1EBC0104FF6FF7101EAC00004490880F8
:1017400010BD00003C00002000127A0000000020C4
:10175000020000200146114A12884A434FF0E0235C
:101760005A6100229A611A46126942F001021A6116
:1017700000BF4FF0E022106900F001021AB100F43E
:101780008032002AF5D04FF0E022126922F00102E7
:101790004FF0E0231A6100229A6170470200002096
:1017A00000BF054A128802F04002002AF9D0C2B2F6
:1017B000014B1B1D1A80704700380140FFF766FC83
:1017C00016E00020FEF7CAFF0446214609A0FEF7F6
:1017D00023FD0120FEF7C2FF0446214608A0FEF7C4
:1017E0001BFD0AA0FEF718FD4FF4FA70FFF7B2FFD9
:1017F000E7E700004348303D25640D0A0000000083
:101800004348313D25640D0A000000000D0A000028
:1018100010B586B00446012144F20400FFF75CFADB
:101820004FF40070ADF8140003208DF81600182056
:101830008DF8170005A91C48FEF7D4FF4FF480600F
:10184000ADF8140004208DF8170005A91648FEF71E
:10185000C9FF25208DF8000003208DF801008DF8C8
:10186000020001208DF803006846FFF7C5F90194D6
:101870000020ADF80800ADF80A00ADF80C00ADF896
:1018800010000C20ADF80E0001A90848FFF7CCFEAF
:10189000012240F225510548FFF7A0FE012103482F
:1018A000FFF766FE06B010BD000801400038014099
:1018B000D018000800000020500000006C01000853
:1018C00020190008500000202807000088010008A7
:1018D0000000000000000000000000000000000008
:1018E00000000000000000000000000000000000F8
:1018F00000000000000000000000000001020304DE
:1019000001020304060708090204060800A24A04AB
:10191000000000000000000001020304060708099F
:0400000508000131BD
:00000001FF
